S0140000536E616B6550726F6A6563742E7372656347
S11300000C945A000C9477000C9477000C947900AB
S11300100C9477000C9477000C9477000C94770080
S11300200C9477000C9477000C9477000C94770070
S11300300C9477000C9477000C9477000C94770060
S11300400C9477000C9477000C9477000C94770050
S11300500C9477000C9477000C9477000C94770040
S11300600C9477000C9477000C9477000C94770030
S11300700C9477000C9477000C9477000C94770020
S11300800C9477000C9477000C9477000C94770010
S11300900C9477000C9477000C9477000C94770000
S11300A00C9477000C9477000C9477000C947700F0
S11300B00C94770011241FBECFEFD8E0DEBFCDBF74
S11300C011E0A0E0B1E0ECE1F6E002C005900D9291
S11300D0AA30B107D9F721E0AAE0B1E001C01D922E
S11300E0AF32B207E1F70E949C010C940C030C940C
S11300F000001F920F920FB60F9211242F933F937B
S11301008F939F9310926B0028E124B937E035B99F
S113011083B1982F977034B925B983B18871892B2D
S1130120843151F0813141F0823131F08A3021F053
S1130130893011F08C3011F48093090188E38093A5
S11301406B009F918F913F912F910F900FBE0F9055
S11301501F90189580E00E94D00141E062E083E0A6
S11301600E94C20183E08093080182E0809307012A
S113017099E0909309018093060108955091080134
S113018060910701252F30E0F901EE0FFF1FEE0FFC
S1130190FF1FE20FF31FE45FFE4FE60FF11D908196
S11301A0911105C0482F852F0E94C20108959930EE
S11301B059F5482F852F0E94C201809106018F5F57
S11301C0809306010E94990267E070E00E94250274
S11301D0809305010E94990265E070E00E94250267
S11301E0809304012091050130E0F901EE0FFF1F17
S11301F0EE0FFF1FE20FF31FE45FFE4FE80FF11D48
S113020080818111DFCF08950E94AA000895809112
S11302100901893019F40E94AA0041C0813169F4AE
S1130220809107018F5F80930701853010F0109251
S1130230070186E00E94BE0032C0823169F48091D9
S113024008018F5F80930801873010F01092080135
S113025087E00E94BE0023C08A3081F480910801A7
S1130260811103C087E080930801809108018150C7
S11302708093080185E00E94BE0011C0843179F4A6
S113028080910701811103C085E08093070180916B
S1130290070181508093070188E00E94BE0049E075
S11302A060910401809105010E94C20108951F9389
S11302B0CF93DF9310910801D0910701C0910601FB
S11302C033C0812F90E0FC01EE0FFF1FEE0FFF1FE4
S11302D0E80FF91FE45FFE4FED0FF11D80818630BA
S11302E029F4D11101C0D5E0D15016C0873029F4CA
S11302F0111101C017E011500FC0853021F41F5FA8
S1130300173038F409C0883039F4DF5FD53018F479
S113031003C010E001C0D0E0C11105C040E06D2F62
S1130320812F0E94C201C150809106018C1748F6AA
S1130330DF91CF911F9108950E94BC0181E08093C9
S1130340680088E380936B00789480E090E0EC018F
S113035021968937954040F00E94BC010E94070114
S11303600E945701C0E0D0E00E94E90181E28A9531
S1130370F1F70000CE01EBCF8FEF87B918B88AB937
S11303801BB8089590E0FC01EE0FFF1FEE0FFF1F56
S1130390E80FF91FE45FFE4FE60FF11D4083089557
S11303A040E014C0242F30E0F901EE0FFF1FEE0FE0
S11303B0FF1FE20FF31FE45FFE4FE90FF11D80837F
S11303C09F5F01C090E0953068F34F5F4730D0F3F2
S11303D0089580910B0190E020910A01FC01EE0F39
S11303E0FF1FEE0FFF1FE80FF91FE45FFE4FE20F40
S11303F0F11D80818823A1F081E090E0AC0102C06E
S1130400440F551F2A95E2F79A01209528B90090C8
S11304100B0102C0880F991F0A94E2F78BB902C03E
S11304201BB818B880910A018F5F80930A01853048
S113043058F010920A0180910B018F5F80930B0199
S1130440873010F010920B01089597FB072E16F4D5
S1130450009407D077FD09D00E94390207FC05D02B
S11304603EF4909581959F4F0895709561957F4FC7
S11304700895AA1BBB1B51E107C0AA1FBB1FA617E7
S1130480B70710F0A61BB70B881F991F5A95A9F739
S113049080959095BC01CD0108958F929F92AF9263
S11304A0BF92CF92DF92EF92FF92CF93DF93EC0152
S11304B0688179818A819B81611571058105910526
S11304C021F464E279ED8BE597E02DE133EF41E02F
S11304D050E00E94A90249015A019B01AC01A7EA1C
S11304E0B1E40E94C8026B017C01ACEEB4EFA5013B
S11304F094010E94D602DC01CB018C0D9D1DAE1D22
S1130500BF1DB7FF03C00197A109B0488883998331
S1130510AA83BB839F77DF91CF91FF90EF90DF9009
S1130520CF90BF90AF909F908F9008950E944D02FE
S1130530089580E091E00E944D020895A0E0B0E0AB
S11305408093000190930101A0930201B0930301F1
S11305500895052E97FB1EF400940E94C00257FDD7
S113056007D00E94DB0207FC03D04EF40C94C002B7
S113057050954095309521953F4F4F4F5F4F0895CB
S113058090958095709561957F4F8F4F9F4F0895FB
S11305900E94FD02A59F900DB49F900DA49F800D15
S11305A0911D11240895B7FF0C94C8020E94C8023B
S11305B0821B930B0895A1E21A2EAA1BBB1BFD01FB
S11305C00DC0AA1FBB1FEE1FFF1FA217B307E4072E
S11305D0F50720F0A21BB30BE40BF50B661F771F86
S11305E0881F991F1A9469F7609570958095909566
S11305F09B01AC01BD01CF010895A29FB001B39F3F
S1130600C001A39F700D811D1124911DB29F700D17
S10F0610811D1124911D0895F894FFCF62
S10D061C01000000030501020309B8
S9030000FC
